:020000022000DC
:1070000000000420B5720200DD720200DF7202008F
:10701000E1720200E3720200E5720200000000006B
:10702000000000000000000000000000E772020005
:10703000E972020000000000EB720200ED72020033
:1070400095A10200EF72020005AB0200EF72020090
:10705000EF720200EF72020011A60200EF7202004E
:10706000EF720200EF720200EF720200EF72020094
:10707000EF720200EF720200EF720200EF72020084
:10708000EF720200718C0200EF720200EF720200D8
:10709000EF720200EF72020091CE0200EF72020066
:1070A000EF720200EF720200EF720200EF72020054
:1070B000EF720200EF72020000000000000000000A
:1070C000EF720200EF720200EF720200EF72020034
:1070D000EF720200EF720200EF720200EF72020024
:1070E000EF720200EF720200EF7202000000000077
:1070F00000000000EF72020000000000EF720200CA
:10710000000000000000000000000000000000007F
:10711000000000000000000000000000000000006F
:10712000000000000000000000000000000000005F
:10713000000000000000000000000000000000004F
:10714000000000000000000000000000000000003F
:10715000000000000000000000000000000000002F
:10716000000000000000000000000000000000001F
:10717000000000000000000000000000000000000F
:1071800000000000000000000000000000000000FF
:1071900000000000000000000000000000000000EF
:1071A00000000000000000000000000000000000DF
:1071B00000000000000000000000000000000000CF
:1071C00000000000000000000000000000000000BF
:1071D00000000000000000000000000000000000AF
:1071E000000000000000000000000000000000009F
:1071F000000000000000000000000000000000008F
:1072000010B5054C237833B9044B13B10448AFF3E0
:1072100000800123237010BDB02300200000000077
:1072200050DF020008B5034B1BB103490348AFF31D
:10723000008008BD00000000B423002050DF0200E1
:10724000154B002B08BF134B9D46A3F5803A002138
:107250008B460F461348144A121A05F0DDFF0F4BF8
:10726000002B00D098470E4B002B00D098470020F1
:10727000002104000D000D48002802D00C48AFF397
:10728000008005F097FF2000290004F023FB05F0A3
:107290007DFF00BF00000800000004200000000087
:1072A00000000000B0230020002D0020000000009E
:1072B000000000000649074A074B9B1A03DD043B08
:1072C000C858D050FBDC02F067FCFFF7B9FF0000A4
:1072D00050E0020000230020B0230020FEE7FEE77C
:1072E000FEE7FEE7FEE7FEE7FEE7FEE7FEE7FEE776
:1072F000F0B595B0002415460F4608461E4602F02C
:10730000D7FA384623460895082205A91A9D0996FA
:107310000D950A948DF82C400C9402F02DFB9DF8ED
:1073200014308DF81140DDE9061003F00302012A44
:10733000CDE9020127D0022A04D0384602F0BCFA77
:1073400015B0F0BDBDF81650C3F3C2038DF8103070
:10735000AD090826082D2C4628BF082433462246AE
:107360000EA9384602F008FB2D1B214608AB02AAE5
:107370000EA8264400F0CEFD002DEBD1384602F0D9
:107380009BFA15B0F0BDBDF81460059DC6F38316D9
:10739000C3F3C204B2000EA9384608238DF810408A
:1073A000C5F3952502F0E8FA08AB324628460EA947
:1073B000009302AB00F038FD384602F07DFA15B0BC
:1073C000F0BD00BF014B01221A707047102400204D
:1073D000704700BF00B583B0044B0093044A4023BC
:1073E000FFF786FF03B05DF804FB00BFF5730200F2
:1073F000D023002038B50E480E4D03780E4CEB5CC0
:107400000025D2B2257053B1043004F0E7F858B922
:107410000A4B1B7813B12378002BFCD038BD0C30FD
:1074200003F002FE0028F3D000F0FAFFF0E700BFFF
:1074300000230020FC2C002010240020CC2300205E
:1074400030B51448144A0378D35C89B0BBB104301A
:1074500004F010F8114D0FCD6C460FC495E80F00E5
:107460001F2584E80F00002269460A48009502F0B3
:1074700013FE40B90A4B00221A7009B030BD0C301F
:1074800003F04EFDE6E700F0CBFF054B00221A703B
:1074900009B030BD00230020FC2C002054D2020093
:1074A000CC23002030B50E4D0FCD89B06C460FC4F3
:1074B00095E80F001F2584E80F000A4A0A48009546
:1074C000694602F0E9FD20B9084B01221A7009B0A3
:1074D00030BD00F0A5FF054B01221A7009B030BD88
:1074E00054D20200C573020000230020CC230020E8
:1074F00008B5FFF7D7FF0421034800F007FC034B52
:1075000001225A7108BD00BF38E002001423002098
:10751000064B074810B500221A7002F07BF90446AA
:1075200010B9044802F09EFA204610BDE424002061
:10753000ACDF020094D20200A9B1124B12495B1ACF
:10754000DB081AD030B4114C2288824217D00022B6
:1075500003E034F8225085420AD001329342F8D138
:10756000002030BC7047084A02EBC0021068704728
:1075700001EBC202106830BC7047184670470A46DB
:10758000F8E700BF38E00200C0DF0200AC230020B3
:10759000094B013903EBC00003290BD8DFE801F0E8
:1075A000020806040220704740797047007970474E
:1075B0000420704700207047C0DF02002DE9F0432F
:1075C0008D4CD4E901239A4285B060D00023C4F8E1
:1075D0001834BFF34F8FA568EAB2D31C04EB8301C4
:1075E00014F82330580718D566680B7803F00303A6
:1075F000012B42D0022B03D14B88023505EB9315AA
:10760000EAB2D4F81804D31C04EB830128B9AE42C3
:1076100039D914F823305B07E7D404EB82026B1CE2
:10762000D2680192DBB204EB830302F00302DB6851
:107630000293022A05F102062DD0012A00F08F8064
:10764000D4F810543DB12B6828469B689847EB68E6
:107650001D68002DF7D16948694B6A49C01AC008F6
:10766000000440F0020000F0D3F8D4E90130C01A61
:1076700018BF012005B0BDE8F0830B880235C3F3C5
:1076800083131D44BCE7A66005B0BDE8F08300206D
:1076900005B0BDE8F083BDF806305B484FEA9319AA
:1076A000B9F1500FC84628BF4FF0500868F38F1348
:1076B00008F10801ADF8063002F0AEF807460028E0
:1076C000BED0F543EDB202F0F3F80135002301A975
:1076D0000822384602F01CF9AD00F3B20333A84586
:1076E00004EB830178D9A8EB050808232A4638461D
:1076F0005FFA88F802F00CF9424605F108034349A5
:10770000384602F005F909F1030806EB9808D4F8A9
:107710001834002B6AD1D4F8105465B1EB685A794B
:1077200028463946002A5DD02B681B689847EB68CD
:107730001D68002DF2D1384602F0BEF800230DF18D
:1077400003008DF8033001F0FFF8D4F818340BB9BA
:10775000C4F808809DF8030001F01CF985E7BDF826
:1077600004202948C2F38313062B28BF062363F3A2
:10777000891202339900ADF8042002F04DF8074653
:1077800000283FF45DAF02F093F80023082201A91E
:10779000384602F0BDF8BDF8043013F4707F29D0EC
:1077A0006FF00109A9EB05090825F1B203312B4659
:1077B000042204EB8101384602F0AAF8BDF8043037
:1077C00006F1010809EB0802C3F38313934246460E
:1077D00005F10405E9D89AE742460823384602F045
:1077E00097F890E71D68002D98D1A4E7384602F07D
:1077F00063F83AE7B0468AE7E4240020E8DF0200B5
:10780000C0DF0200A0D20200ACDF0200F0240020A2
:107810002DE9F04F634C87B0002307460DF10B00B4
:107820008DF80B30884601F08FF8D4E9015303F549
:1078300080735B1B012B00F2B28004F21C4604F53E
:10784000836A04F214490121304601F0F1FA5046EE
:1078500001F006FB484601F003FBA368D8B2C21C46
:1078600004EB820114F8222012F0040200F094804C
:1078700003F1020C91F800E00EF0030EBEF1010FCF
:10788000E34600F08480BEF1020F00F1030E6FD0DA
:1078900004EB8E01002AEDD104EB80000133C268B5
:1078A0000392DBB204EB830302F00302012AD968DE
:1078B00057D0022A53D1BDF80E309B090333090C6F
:1078C0000BEB930B4846019101F0D6FA0199002881
:1078D00043D03046C4F808B001F0AAFAD4E9013226
:1078E00002F58072D21A012AADD9DAB2033202331C
:1078F00005219DF80B0044F82210636001F04AF85E
:107900000021294801F072FA80F310006B1CDBB2F1
:1079100004EB83020004EBB2033340EA1740D0606B
:1079200014F8232067F3C50204F8232054F8231029
:1079300068F39F2121F4717222F0030242F00102E8
:1079400044F8231024F8232023781BB1FFF736FED8
:107950000028FBD107B0BDE8F08F3046BCE700211E
:10796000B0E7BDF80C30C3F38313090C9B44A9E7BF
:107970004B880CEB9313D8B2C11C03F1020C14F822
:107980002120E34604EB810102F0040282E70B8828
:10799000C3F383136344EEE703F1020B7CE72B464A
:1079A000A3E700BFE4240020002900202DE9F04FC8
:1079B000664C87B0002307460DF10B008DF80B30A5
:1079C0008946019200F0C0FFD4E9015303F58073AA
:1079D0005B1B022B00F2B88004F21C4604F5836A9C
:1079E00004F214480121304601F022FA504601F019
:1079F00037FA404601F034FAA368D8B2C21C04EB4F
:107A0000820114F8222012F0040200F09A8003F19F
:107A1000020C91F800E00EF0030EBEF1010FE346F8
:107A200000F08A80BEF1020F00F1030E75D004EB66
:107A30008E01002AEDD104EB80000133C26803926D
:107A4000DBB204EB830302F00302012AD9685DD0A4
:107A5000022A59D1BDF80E309B090333090C0BEBF8
:107A6000930B4046009101F007FA0099002849D095
:107A70003046C4F808B001F0DBF9D4E9013202F570
:107A80008072D21A022AADD9DAB203320333452109
:107A90009DF80B0044F82210636000F07BFFAB1CE4
:107AA000DBB204EB8303019A2948DA60002101F07C
:107AB0009DF980F310006B1CDBB204EB8303000420
:107AC000EDB2033540EA1740D86014F8253067F36B
:107AD000C50304F8253054F8252069F39F2222F4C9
:107AE000717323F0030343F0410344F8252024F885
:107AF000253023781BB1FFF761FD0028FBD107B0CB
:107B0000BDE8F08F3046B6E70021AAE7BDF80C309B
:107B1000C3F38313090C9B44A3E74B880CEB93132B
:107B2000D8B2C11C03F1020C14F82120E34604EB87
:107B3000810102F004027CE70B88C3F383136344E2
:107B4000EEE703F1020B76E72B469DE7E4240020E5
:107B5000002900202DE9F04F6A4C89B00025074626
:107B60000DF11300CDE902238DF81350894600F082
:107B7000EBFED4E9015303F580735B1B032B00F28A
:107B8000BE8004F21C4604F5836A04F21448012105
:107B9000304601F04DF9504601F062F9404601F0DF
:107BA0005FF9A368D8B2C21C04EB820114F822204A
:107BB00012F0040200F0A08003F1020C91F800E042
:107BC0000EF0030EBEF1010FE34600F09080BEF10F
:107BD000020F00F1030E7BD004EB8E01002AEDD1E1
:107BE00004EB80000133C2680592DBB204EB83032F
:107BF00002F00302012AD96863D0022A5FD1BDF8DE
:107C000016309B090333090C0BEB930B4046019193
:107C100001F032F9019900284FD03046C4F808B07D
:107C200001F006F9D4E9013202F58072D21A032A72
:107C3000ADD9DAB20332043385219DF8130044F83C
:107C40002210636000F0A6FEAA1CEB1CD2B204EB6B
:107C50008202DBB204EB8303029ED6600021039A0A
:107C60002948DA6001F0C2F880F310006B1CDBB227
:107C700004EB83030004EDB2033540EA1740D860FB
:107C800014F8253067F3C50304F8253054F825208F
:107C900069F39F2222F4717323F0030343F08103FD
:107CA00044F8252024F8253023781BB1FFF786FC03
:107CB0000028FBD109B0BDE8F08F3046B0E70021C5
:107CC000A4E7BDF81430C3F38313090C9B449DE76C
:107CD0004B880CEB9313D8B2C11C03F1020C14F8BF
:107CE0002120E34604EB810102F0040276E70B88D1
:107CF000C3F383136344EEE703F1020B70E72B46F3
:107D000097E700BFE424002000290020F0B41B4EB8
:107D1000D6F810340746002B2DD0DC6825790021D9
:107D20008D42084617D0234603E0DB681A798A4261
:107D300011D01B68002BF8D1FB681871D6F81034ED
:107D40009BB1DA68FB6812681A60D6F81034DB68F9
:107D50001F60F0BC7047092901F1010301D01946E9
:107D6000DEE74FF0FF30F0BC7047C6F81074FA68D9
:107D70001360F0BC70471846DEE700BFE424002023
:107D800038B5084BD3F8104401251D704CB1E36899
:107D90005D71236820465B689847E3681C68002C87
:107DA000F5D138BDE424002030B5C38883B0044643
:107DB0000D4613BB217A05291DD0637AA08873B9BB
:107DC000124B53F821400021FFF7B6FB1049034640
:107DD0002246284603B0BDE8304001F0C5B8FFF7A1
:107DE000D7FB0C4B0C4953F82020284601F0BCF877
:107DF000217AA088E4E703B030BD084A0092084920
:107E0000084A284601F0B0F8D4E700BF2CD302009E
:107E100020D30200B8D202001CD3020014D3020007
:107E2000FCD20200F4D202002DE9F04385B01D46D9
:107E30000C9C002381460E46174694F80C80237351
:107E400021462846FFF7B0FF062F09D8DFE807F0E4
:107E5000042E343B444F1F004946204601F084F86D
:107E60002B7A052B05D06B7A5BB92749204601F0A8
:107E70007BF8204601F06CF884F80C8005B0BDE872
:107E8000F083224A2249204601F06EF8EDE7D6E958
:107E90000413F2680393B3680291CDE900324946B6
:107EA000D6E90023204601F05FF8D9E73268494659
:107EB000204601F059F8D3E74946D6E90023204689
:107EC00001F052F8CCE7B36800934946D6E90023A5
:107ED000204601F049F8C3E7D6E902320192009347
:107EE0004946D6E90023204601F03EF8B8E7D6E936
:107EF0000321B3680291CDE900324946D6E9002357
:107F0000204601F031F8ABE7F0D2020014D30200B2
:107F10001CD30200082900D970472DE9F04F1D46F7
:107F200083B000241B7B2C7307460E46104629465F
:107F300091460193DFF8C8A0DFF8C880FFF734FF4F
:107F400005E03A5D013401F00FF8082C09D0A64293
:107F500041462846F5D85146013401F005F8082C71
:107F6000F5D12249DFF8A0A0214CDFF8A0802846F7
:107F700000F0FAFF4FF0000B0EE012F8081011F0BD
:107F8000970F08BF2E22214628460BF1010B00F067
:107F9000EBFFBBF1080F10D05E4505D917F80B2099
:107FA0007E2AEAD92E22EEE7514628460BF1010B34
:107FB00000F0DAFFBBF1080FEED199F80830052B7D
:107FC00002D099F809305BB90A49284600F0CCFF85
:107FD000284600F0BDFF019B2B7303B0BDE8F08F76
:107FE000054A0649284600F0BFFFEDE7E8D2020047
:107FF000ECD20200F0D2020014D302001CD3020023
:10800000E4D20200DCD2020028D3020049DE0200E2
:1080100038B5184B197851B3174B1A68C4B2107899
:10802000844222D0002301338B4220D012F8330047
:10803000844202EBC305F6D102F0DAFA6B78A3F1C1
:108040000103B3FA83F35B09834200D038BD0B4BC5
:10805000D3E900231343F9D1094B0A4819680022D8
:108060004908BDE8384000F001BC1546E4E70023AC
:108070001B78FFDE9C290020F0290020C829002061
:10808000A0290020A8290020F0B54508704E725D97
:10809000044610F0010014BF130902F00F0383B06F
:1080A000042B10D8DFE803F01F034B6D11000029EB
:1080B00040F0BA800C4600280EBFF0230F23214663
:1080C0001A401143715503B0F0BD002967D0002854
:1080D00014BF0F21F02101EA020114BF3022032254
:1080E0000A437255EFE70029EDD000280CBFF021BC
:1080F0000F2101EA02010CBF012210220A430023D2
:108100000DF1070072558DF80730C4F1200500F01D
:108110001BFC01234F499DF80700A4F1200223FA1C
:1081200005F503FA02F22A43D1E9005603FA04F4F2
:1081300032432C43C1E9004200F02CFCC3E7002984
:1081400066D00028444B14BF0F21F02101EA020140
:10815000187814BF302203220A4372550028B2D087
:108160003E4B1A681378A34261D0002303E012F853
:108170003310A1425CD00133834202EBC305F6D138
:10818000A1E700299FD100280CBFF0210F2101EAAF
:1081900002010CBF042240220A43725593E72E4F7E
:1081A000002814BF0F23F02338781A40725570B19D
:1081B0002A4B1B681A78A24204D141E013F83120FF
:1081C000A2423ED00131814203EBC105F6D100232A
:1081D0000DF107008DF80730C4F1200500F0B4FB65
:1081E00001231C499DF80700A4F1200223FA05F59C
:1081F00003FA02F22A43D1E9005603FA04F426EA0C
:10820000020225EA0404C1E9004200F0C3FB5AE778
:1082100000280CBFF0210F2101EA02010CBF01224E
:1082200010220A4372554EE72024022143E71546E7
:108230006B68002B3FF447AF20460121984742E787
:108240001D466B68002BC2D0002120469847BEE730
:10825000D0290020C82900209C290020F0290020D6
:108260002DE9F041174F3B78E3B1DFF86880002437
:10827000D8F8005005EBC40615F8340002F0B8F940
:108280007178A1F10101B1FA81F14909091AB1FA34
:1082900081F115F834004909FFF7F6FE3B78013407
:1082A000A342E5DC084BD3E90023134301D1BDE829
:1082B000F081064B0648196800224908BDE8F041E4
:1082C00000F0D4BA9C290020C8290020A029002051
:1082D000A8290020F0290020092A43D92DE9F041DE
:1082E00082B00D460646144601F0DCFF002832D06D
:1082F000214A2249224B16600D702022002121487C
:108300001C6004F089FF204B002000216C1EC3E993
:108310000001E4B245B306EBC4044FF003081B4F61
:1083200002E0B44220D01C469DF80630A5782078A3
:108330008DF8048023F007033A4601A98DF8063032
:108340008DF8055001F0B8FFA4F108030028E8D02B
:1083500002B0BDE8F08101F04FFF0028C8D002B0A4
:10836000BDE8F08107207047094A0A48002100F063
:108370006FFA02B0BDE8F081F02900209C290020AE
:10838000A0290020D0290020C82900201180020047
:108390006182020098D3020070B5084D2B785BB162
:1083A000074E00243368012113F8340002F06CF802
:1083B0002B780134A342F5D8002070BD9C29002001
:1083C000F029002070B5124D2B7882B053B1114EB8
:1083D0000024336813F8340002F0D0F82B7801340D
:1083E000A342F6D800230DF107008DF8073000F006
:1083F000ABFA094B9DF8070000240025C3E90045AE
:1084000000F0C8FA054800F07DFA02B070BD00BF68
:108410009C290020F0290020C8290020A82900203C
:1084200000B585B000230390194601AA44F201006B
:10843000CDE9013300F004F805B05DF804FB00BF9E
:1084400010B572B6FFF79CFCFFF7B8F80028FBD117
:10845000104B114C1149E41AE408240444F00100C3
:10846000FFF7D6F90E4B1B68DB0700D500BE44F0C2
:1084700002000C49FFF7CCF9BFF34F8F0A490B4BB1
:10848000CA6802F4E0621343CB60BFF34F8F00BFB2
:10849000FDE700BFC0DF0200E8DF0200A8D3020052
:1084A000F0ED00E0B4D3020000ED00E00400FA05B6
:1084B000D0E90223D1E90201994208BF90422CBFC2
:1084C00001200020704700BF2DE9F04F87B007461C
:1084D00000F08CFB40B1B74AD2E9003113F1807350
:1084E00041F10001C2E900310021384600F09AFB59
:1084F000B14C60B1236853B1B04B25681B7823B1F0
:108500001DB12B7F002B40F01C8100232360012133
:10851000384600F087FB002840F0F48005A9A84801
:1085200000F006FC30B3A74DDFF89082A44E03782C
:10853000012B00F0C680002B00F0CB80022B0FD166
:1085400028464FF0000901F0C5FA30B180F81C90C0
:10855000284601F0BFFA0028F8D1012388F800303E
:1085600005A9304600F014FC05A9304600F0E0FBF8
:108570000028DCD1DFF84C82934E3BE0404601F00E
:10858000A9FAD0E902B105463046039100F05AFB42
:10859000884B0399D3E9002312EB000943F1000A49
:1085A0008A4BD3E900239A4508BF914505D219F1BA
:1085B000807399464AF100039A46BBEB0903009386
:1085C00061EB0A030193DDE90023012A73F1000145
:1085D0002ADBDFF8FCB15A456DD8AA684FF4960340
:1085E0000021304600F076FA00285ED00D281FD01A
:1085F00000232360404601F073FA236800287BD0F3
:10860000002BBBD02368D0E90201D3E902239942B1
:1086100008BF90424CD223681B7F002BAED021684C
:10862000404601F043FAA9E70021304600F0EEFA97
:10863000624B1B78002BDBD02B7F002BD8D0304631
:1086400000F000FB5B49614BD1E900ABD3E90023AB
:108650001AEB000A4BF1000B9B4508BF92455046B0
:10866000594603D21AF180704BF10001D5E902237B
:10867000994208BF90425FD32B6903B92B77D5E9A4
:108680000530984729690029B2D02B7F002BAFD045
:10869000D5E9022312EB010A43F1000BC5E902AB55
:1086A0002946404601F002FAA2E72368EBB12560B3
:1086B00007B0BDE8F08F304600F0C4FA00EB0B02C3
:1086C0008CE741682368994213D0284601F00CFAE0
:1086D00046E743681A7F002A7FF442AF01221A77E7
:1086E0004168284601F0E2F93AE7384600F0C4F95B
:1086F000DDE70023236033E7002BD9D1384600F0B3
:10870000BFF9D5E73048314D00F09CFA294BD3E949
:108710000089D5E9002318EB000A49F1000B9B45BD
:1087200008BF92455046594603D21AF180704BF16A
:108730000001C5E90001F1E62946404601F0B6F91D
:1087400056E7214800F07EFA1A4B2049D3E900236E
:10875000D1E9008912EB000A43F1000BCB4508BFB9
:10876000C2455046594603D21AF180704BF10001C0
:10877000D5E90223994208BF90422BD32B6903B954
:108780002B77D5E905309847296900293FF4BDAE1C
:108790002B7F002B3FF4B9AED5E9022312EB010881
:1087A00043F10009C5E902892946064801F07EF92E
:1087B000ABE600BFF8290020782A0020002A00201C
:1087C0005C2A0020C8D302001C230020702A00204D
:1087D000FFFFB4002946024801F068F995E600BFA2
:1087E000C8D3020010B5134B13491B68134882B05D
:1087F00058220193082300F045FA044610B12046A0
:1088000002B010BD0E4A0F4801A900F0DBF8044683
:108810000028F4D101210B4800F0DEF901231946AC
:10882000094A084800F030F9084B012220461A7026
:1088300002B010BDC4D30200042A00205C2A00202C
:10884000C98402001C230020FFFF7F00002A0020B3
:108850004AB1A1F101010368B1FA81F14909C3E903
:108860000412002070470720704700BF037F0BB140
:10887000002070472DE9F048826182B004461D480F
:108880000D4600F0DFF91C4B1C49D3E90023D1E968
:10889000006712EB000B43F1000CBC4508BFB34569
:1088A00003D21BF1807B4CF1000C1BEB050023690C
:1088B0004CF10001C4E9020103B1256101A910488E
:1088C00000F0F8F950B100254460057001A90C488A
:1088D00000F01EFA30B902B0BDE8F088042002B002
:1088E000BDE8F088034800F0B1F9284602B0BDE8C1
:1088F000F08800BF1C230020F8290020702A0020E7
:108900005C2A002030B5002583B00446057701A914
:108910000B4800F0CFF978B101234460037001A93E
:10892000074800F0F5F908B903B030BD054800F07C
:108930008DF9284603B030BD042003B030BD00BF20
:108940005C2A00201C23002070B4EFF3108472B660
:108950000D4B9A68AAB90D490D4E01259D60D1F8BD
:10896000805035401D60C1F88060D1F884505D6052
:108970004FF0FF33C1F88430027004B962B670BCA6
:10898000704701230370F8E7F02C002000E100E0BD
:10899000FC06FFBD094B9A687AB170B910B4EFF3C9
:1089A000108172B6064A1C6814605C685460986056
:1089B00001B962B65DF8044B70477047F02C002097
:1089C00000E100E0F8B5244E4579244C244B254FB6
:1089D0009B1B04EBC506DB08367947F825201B04F2
:1089E00096BB02680D88C2F8085590F90420897872
:1089F000002A21DB02F1604202F561424901C9B25D
:108A000082F8001390F90420002A07DB164D02F0CB
:108A10001F0601215209B14045F82210427913493D
:108A200044F8320004EBC20443F003000123237135
:108A3000FEF7EEFE0020F8BD0D4D02F00F024901D9
:108A40001544C9B22976DDE743F002000949FEF773
:108A5000DFFE0820F8BD00BFC0DF02007C2A002036
:108A6000F8DF0200842A002000E100E00CD40200BC
:108A7000FCEC00E0E8D30200036801221A607047B2
:108A8000036801225A607047F0B404684FF48035DF
:108A90008D40C4F80853066801F15004C6F84853E5
:108AA000A4000668A4B20027375182B03659046882
:108AB000019601F5A87122F07F42019E44F8212021
:108AC0000268C2F8445313B10368C3F8045302B0F8
:108AD000F0BC70472DE9F0430E464FF48037016833
:108AE000B740C1F848730168C1F8087301680446CB
:108AF00001EB8600D1F804C5D0F84015C0F840C598
:108B000006F15005AD002068ADB24FF0000940F805
:108B1000059085B0A1EB0C014059029021F07F41F6
:108B2000012922F07F48029A45D02268D2F80455E4
:108B3000C2F84473A8EB050222F07F42012A06F531
:108B4000A87627D0226842F826802068D0F80455FD
:108B5000A8EB0501C3F1FF13013903F57F4321F0B1
:108B60007F418B4212D341B1C0F844732368002087
:108B7000C3F8047305B0BDE8F08308F1010240F8C2
:108B800026202068D0F804359D42EDD00D2005B098
:108B9000BDE8F08320680F4B08F1010240F8262061
:108BA00043F001034FF4806098472068D0F8043503
:108BB0009D42D9D0EAE7074A019342F001024FF4FF
:108BC000806090472268019B42F8059052590392B9
:108BD000039AAAE7E0D3020002680223C2F84433F2
:108BE00011B10268C2F80433704700BF0368D3F8BC
:108BF000040100B97047002282B0C3F80421D3F801
:108C000004310193019B012002B070474FF480337F
:108C1000026803FA01F1C2F848130368C3F80813A5
:108C2000704700BF5031890089B20368585800B9B5
:108C3000704700225A5082B05B580193019B01207B
:108C400002B070470368D3F80405704790F9043008
:108C5000002B09DB5A09403203F01F0301210348AE
:108C600001FA03F340F82230704700BF00E100E052
:108C7000024A034B10681B68184700BF7C2A00207B
:108C8000842A002099B110B4B2FBF3F403FB14243E
:108C9000A4B244B9C0E9001484608281C381204633
:108CA0005DF8044B704709205DF8044B70470E20B7
:108CB000704700BF30B482B050E8013F9DB2C48914
:108CC00025448489A54228BF2D1B0489A54202BFE3
:108CD000BFF32F8F002207E0C5EA030540E80154E7
:108CE000002CE9D14FF001028DF803200193019B84
:108CF0009DF803200B602AB10B880068184402B06D
:108D000030BC704702F0FF03184602B030BC704719
:108D10000A884B889A4201D00020704750E8012F02
:108D2000C2EA024240E80123002BF7D1012070473C
:108D300030B482B050E8023F1FFAA3F5C488A542C0
:108D400002BFBFF32F8F00220DE0C4892544848920
:108D5000A54228BF2D1BC3EA054540E80254002C5C
:108D6000E8D14FF001028DF803200193019B9DF89B
:108D700003200B602AB14B880068184402B030BC55
:108D8000704702F0FF03184602B030BC704700BFC6
:108D90000A884B889A4201D00020704750E8022F81
:108DA000C2EA224240E80223002BF7D1012070479B
:108DB00001F01F024B09012100EB8300914000F0FC
:108DC0001FB800BF01F01F0201234909934000EBC7
:108DD0008100D94300F020B84B0901F01F0150F881
:108DE0002300C84000F00100704700BF50E8002F8A
:108DF0000B4640E8003C9CF0000FF7D1104670474E
:108E000050E8003F43EA010240E8002C9CF0000FCC
:108E1000F6D11046704700BF50E8003F03EA010258
:108E200040E8002C9CF0000FF6D11046704700BFC0
:108E300050E8003F03EB010240E8002C9CF0000FDB
:108E4000F6D11046704700BF50E8003FA3EB010287
:108E500040E8002C9CF0000FF6D11046704700BF90
:108E6000012350E8002F42EA030C40E800C191F0D2
:108E7000000FF6D160467047002350E800CF0CEA9F
:108E8000030240E8002191F0000FF6D160467047E0
:108E9000B8B130B4D0E90112521A0468D2B2531EEC
:108EA0002160DBB242B101680A685C1E551C0D608E
:108EB0001370E3B2FF2BF6D103680020187130BCA9
:108EC00070470E20704700BFF0B583B00446002500
:108ED0000DF107008DF80750FFF736FDD4E900319A
:108EE0001A688A4210D9511E19602168A3680F6858
:108EF00012F8015C0A79268AE068DB1BDBB29A4231
:108F000006FB050538BF0B719DF80700FFF742FD12
:108F1000284603B0F0BD00BF30B5054683B000233E
:108F20000DF107000C468DF80730FFF70DFD2A689C
:108F30001368591C1160E9682A8A641AB4FBF2F4B8
:108F40001C709DF80700FFF725FD03B030BD00BF82
:108F5000826842B110B504464369016800699847C8
:108F60000023A36010BD70470EB400B582B0039912
:108F700021B104AB01AA019300F0B2F802B05DF890
:108F800004EB03B0704700BF2DE9F04F8A4683B071
:108F90009245164605469846DDE90CB1C0F09C8026
:108FA00053460127B3FBF6F39E4207F10107F9D9B7
:108FB000474538BF474611F00103AA68009302D124
:108FC000BBF1000F68D1012403E008F1FF3806FB74
:108FD00004F4B8F1010FF8D8BAFBF4F08642F6D9E0
:108FE000DFF8F8904FF00D0807E0B442B4FBF6F359
:108FF0001CD3BAFBF3F0AA681C4619F800302968A4
:109000000A2B04FB10AA01EB020E02F1010028D08A
:10901000A8608EF80030D5E901329A42E5D328469F
:10902000FFF796FFB4FBF6F3B442E2D2009BABB17C
:10903000BBF1000F12D0BB4510D92024AB682A68C1
:10904000591CA960D454D5E901329A420BF1FF3B77
:109050001ED2BBF1000F01D0BB45EFD103B0BDE87C
:10906000F08FA86001F80280D5E90120904204D277
:109070002A6802EB000E0130CAE728460193FFF789
:1090800067FFAA682968019B501C01EB020EBFE72D
:109090002846FFF75DFFDCE78B0717D42024BB458C
:1090A00091D92B68511CA9609C54D5E901329A4290
:1090B0000BF1FF3B05D2BBF1000F84D0BB45F0D1D3
:1090C00081E72846FFF744FFAA68F4E7B8F1000FEC
:1090D0000CBF30242024E2E7012769E720D40200F6
:1090E000002900F0E8822DE9F04F054685B0914651
:1090F0000C460E78DFF814A74FF00D0B13E0AB68A9
:1091000028680A2E03F1010200EB030100F026811A
:10911000AA600E70D5E901329A4280F0118126785A
:10912000002E00F014810134002E00F01081252E55
:10913000E5D12146002711F8012B2D2A00F0E5800A
:10914000302A00F0E6802B2A00F0D6802A2A00F090
:109150001181A2F13006F3B2092B03D922E2A3F167
:1091600030060146084606EB860310F8012BA2F1F3
:109170003004092C02EB4303F1D92E2A00F00681BA
:109180004FF0000802F0FB03682B01F1010405D148
:1091900014F8012B02F0FB03682BF9D0253A532A6F
:1091A000BDD801A353F822F03D9502001F910200A3
:1091B0001F9102001F9102001F9102001F910200E7
:1091C0001F9102001F9102001F9102001F910200D7
:1091D0001F9102001F9102001F9102001F910200C7
:1091E0001F9102001F9102001F9102001F910200B7
:1091F0001F9102001F9102001F9102001F910200A7
:109200001F9102001F9102001F9102001F91020096
:109210001F9102001F9102001F9102001F91020086
:109220001F9102001F9102001F9102001F91020076
:109230001F9102001F9102001F9102001F91020066
:109240001F9102001F9102001F9102001F91020056
:109250001F9102001F9102001F9102001F91020046
:109260001F9102001F9102001F9102001F91020036
:109270001F910200559502001F9102001F910200EC
:109280001F9102001F9102001F9102001F91020016
:109290001F9102001F9102001F9102001F91020006
:1092A0001B930200B79402001F9102001F9102005D
:1092B0001F9102001F910200B79402001F9102004B
:1092C0001F9102001F9102001F9102001F910200D6
:1092D0001F9102002F9402001F9102001F910200B3
:1092E000D59302001F910200B99302001F91020062
:1092F0001F9102005595020047F004070C462146D5
:1093000011F8012B2D2A7FF41BAF47F001070C4603
:10931000F5E747F002070C46F1E7D9F800301A1DCF
:10932000C9F800201E78AB680A2E00F04C822A682B
:10933000591CA960D654D5E901329A42FFF4EFAE28
:109340002846FFF705FE2678002E7FF4ECAE2B7B37
:10935000002B40F0218105B0BDE8F08FAA6000F835
:1093600003B0D5E901329A4280F00E812968114498
:109370000132CDE6D9F800301A1DC9F80020627814
:109380001E682E2A04F102007FF4FAAE4A78A2F198
:109390003003092B01464FF000083FF6F3AE08EB0F
:1093A000880802EB480811F8012FA2F13003092BBD
:1093B000A8F13008F3D9E5E6D9F800301A1DC9F84C
:1093C000002019680197434600960A222846FFF7B5
:1093D000DBFDA4E6D9F800301A1DC9F8002017F00B
:1093E0000107D3F8008040F0EA80B8F1000F03D005
:1093F000404603F019FF0746BE4240F25D81002E51
:1094000000F05A81202102E0BE4200F05581AA6896
:109410002B68501CA8609954D5E90123934206F1AA
:10942000FF36F1D32846FFF793FD2021ECE7D9F86A
:109430000020131DC9F80030AB6829681768581C54
:109440003022A860CA54D5E90123934280F0F1800C
:109450002A68581C7821A860D154D5E90123934289
:1094600080F0E2800F2F03D93A4612090F2AFCD868
:109470004FF0805606E00F2E4FEA16137FF64FAEE0
:109480001E46AB68B7FBF6F21AF802802868B8F1FE
:109490000A0F06FB127700EB030103F1010267D00C
:1094A000AA6081F80080D5E901329A42E3D32846C8
:1094B000FFF74EFDDFE7D9F800301A1DC9F800208C
:1094C000196881EAE172A2EBE172092A4FF001000A
:1094D0000BDDDFF83CC300E01A46ACFB02E3632A75
:1094E00000F101004FEAD303F6DC4045034638BFE4
:1094F0004346029307F00203002E57D00029C0F222
:109500009D80780700F19A80002B00F09980B8F1D7
:10951000000F40F095800029C0F236817B0700F1F2
:10952000468107F00303022B00F0FD80CDE90067C0
:1095300043460A222846FFF727FDF0E5AB682A6874
:10954000581C2521A860D154D5E901329A42FFF474
:10955000E6ADF5E6D9F800301A1DC9F80020196803
:1095600001974346009610222846FFF70DFDD6E5E9
:10957000AA6000F803B0D5E901329A4280F09380E6
:109580002B68991801328BE72846FFF7E1FCAB689E
:1095900029685A1C1944BBE5284605B0BDE8F04FC0
:1095A000FFF7D6BC084600262146E6E52BB1B8F108
:1095B000000F00F02581FB07ADD40026ABE798F83B
:1095C0000020002A00F02081AB684746C8F1010165
:1095D000D5F800E00A2A01EB07080EEB030C03F1B3
:1095E000010054D0A8608CF80020D5E901239342F3
:1095F00042D217F8012F002AEAD146457FF68FADF7
:10960000202702E046453FF48AADAA682B68511C2A
:10961000A9609F54D5E901329A4206F1FF36F1D391
:109620002846FFF795FCEDE72846FFF791FCAB686D
:1096300018E72846FFF78CFCAB6809E7013E63E7B3
:10964000FA073FF568AF002EB7D0029B9E427FF627
:1096500062AF2023AA68501CA86028688354D5E90B
:109660000102824206F1FF3680F0BC80002EA4D0B9
:10967000029A9642EED14EE728460291FFF768FC27
:1096800017F8012F002AB8D0AB680299A0E7A860AC
:109690000EF803B0D5E90130984260D22B6803EB95
:1096A000000C01309EE72846FFF752FCA9682B68A2
:1096B0004A1C1944F4E6704798F80060002E3FF405
:1096C0002EADAB6828680A2E03F1010200EB0301FE
:1096D00011D0AA600E70D5E9012393421BD218F86D
:1096E000016F002E3FF41BAD28680A2E03F1010222
:1096F00000EB0301EDD1AA6000F803B0D5E9013217
:109700009A4239D2296811440132AA600E70D5E913
:1097100001239342E3D32846FFF71AFC18F8016FA0
:10972000002ECED1FBE4B8F1000F7FF4FFAE002E87
:1097300068D0029B9E427FF6F9AE3023AA68501C87
:10974000A86028688354D5E90102824206F1FF36F9
:109750004FD2002E56D0029A9642EFD1E6E6284626
:10976000CDE90221FFF7F4FBAB682A68581C02EB35
:10977000030CDDE9022135E72846FFF7E9FBAB687A
:1097800029685A1C1944A4E7AA68531CAB602B68CB
:109790002D209854D5E901329A42C1F10001FFF41D
:1097A000C0AE28460391FFF7D3FB0399B9E6AA6838
:1097B000531CAB602B682B209854D5E901329A4298
:1097C000FFF4AFAEEDE72A68591CA96002F803B0B8
:1097D000D5E901239342FFF4AAAD2846FFF7B8FB71
:1097E000AB68A4E528460391FFF7B2FB2023039959
:1097F0003CE728460391FFF7ABFB30230399A8E72A
:10980000464688E6002691E69046F6E620D4020019
:10981000CDCCCCCCFFF73CBB2DE9F041058ACF1C69
:10982000043D2F440646B7FBF5F7FFF74DFB002834
:1098300034D0FFB24FF48073013F0446C580066008
:1098400083802CD08046002509E06379AF4203F184
:1098500001036371C8F80000066080461FD03046DF
:10986000FFF732FB01350028EFD194F80580276817
:10987000B8F1010316D03D46013083422D68FBD17B
:10988000B8F1000F0AD0002601E03C463F682146AF
:1098900001362846FFF740FBB045F6D800242046A5
:1098A000BDE8F08121463846FFF736FBF6E700BFFA
:1098B00004300121FFF7BCBA2DE9F0410121044633
:1098C0000430FFF7C1FAC0B208B1BDE8F08194F8E6
:1098D00005802568B8F1010314D02E46013083427B
:1098E0003668FBD1B8F1000FEFD0002701E02C461D
:1098F0002D68214601373046FFF70EFBB845F6D8F4
:10990000BDE8F08121462846BDE8F041FFF704BBE1
:109910002DE9F8430546C6884079144606FB00F257
:10992000043A04EB030C1F1D624538BFD41ABE4233
:109930008846B7FBF6F106FB117002D801392D6895
:10994000FCD1371AA74228BF27469CB14FF0000927
:109950000430E41B28443A4608EB090103F04EFCAE
:10996000A642B9442D6837464FF0000028BF27466D
:10997000002CEDD1BDE8F8832DE9F8430546C688F3
:109980004079144606FB00F2043A04EB030C1F1D59
:10999000624538BFD41ABE428846B7FBF6F006FBD4
:1099A000107102D801382D68FCD1771AA74228BF60
:1099B00027469CB14FF0000904312944E41B3A4684
:1099C00008EB090003F01AFCA642B9442D6837469B
:1099D0004FF0000128BF2746002CEDD1BDE8F883E9
:1099E00041DF7047064A074B10B5002414701C6015
:1099F000BFF35F8F0449054800F042F8204610BDD0
:109A0000902A0020942A002030D40200882A0020C6
:109A100000B583B000230DF107008DF80730FEF785
:109A200093FFF1EE103A23F09F03E1EE103ABFF3FB
:109A30005F8F0B4B4022C3F884219DF80700FEF78F
:109A4000A9FF03F01FFA28B920BF40BF20BF03B011
:109A50005DF804FBFFF7C4FF03B05DF804FB00BF33
:109A600000E100E0826800239360826813618268ED
:109A700053618268D3608268536082681360704764
:109A800001600B6843604A68934204BF002343604F
:109A9000704700BF436843B1026891680B4443605C
:109AA0005268934204BF00234360704770B5446816
:109AB000064620680D4618B908E02468206828B1D9
:109AC000B368294698470028F7D1206828602560A8
:109AD00070BD00BF4368186808B102681A6070471B
:109AE00043681868704700BF4068036873B19942C3
:109AF00003D107E0814204D0034618680028F9D159
:109B0000704718460B68036001207047184670477D
:109B100030B41F49A1F594728B1ADB1003EBD37399
:109B20005B10DD0052F83330984202EB050420D27E
:109B3000A24218D2ED1005EBD5756D1002EBC501F0
:109B400052F83530984205D310E052F8333098423D
:109B50000FD221468B1ADB1003EBD3735B108A42C2
:109B600002EBC304F1D30B4830BC704722460C46CD
:109B70001146984204D904F108028A42CCD3F2E794
:109B80006068044B30BC002808BF1846704700BF0F
:109B900090D5020054D4020030B4824B1B685C1C88
:109BA00000F0A580804A082B12682ED07D4B1B68E0
:109BB000082B00F08B80591C20D07B4A1268082BA0
:109BC00000F08780794AD2F8883043F47003C2F8F5
:109BD0008830BFF34F8FBFF36F8F4FF01023D3F850
:109BE0000022002AC0F2AC80D3F80432002BC0F26D
:109BF000A7806F4B6F4A1A6030BC70476E4A6F4B3C
:109C000012681B78C2F30312D9E7032A0CD8654BFC
:109C10001B684FF080420021581CC2F80C11C2F89A
:109C20001011C2F838156ED05F4A1268082BBDD1EA
:109C3000032ABBD84FF08052614BD2F80414C3F80A
:109C40002015D2F80814C3F82415D2F80C14C3F860
:109C50002815D2F81014C3F82C15D2F81414C3F830
:109C60003015D2F81814C3F83415D2F81C14C3F800
:109C70004015D2F82014C3F84415D2F82414C3F8C0
:109C80004815D2F82814C3F84C15D2F82C14C3F890
:109C90005015D2F83014C3F85415D2F83414C3F860
:109CA0006015D2F83814C3F86415D2F83C14C3F820
:109CB0006815D2F84014C3F86C15D2F84424C3F8E0
:109CC0007025384B1B68082B7FF475AF364A126835
:109CD00002B3032A3FF676AF4FF08043D3F8002457
:109CE000D20744BF6FF00102C3F800246AE7334A89
:109CF000314B12781B68082A4FEA13137FF456AFD2
:109D000013F00C0F83D02C4A2C4B12681B78C2F333
:109D100003128BE72B4C2C492C4D25602C482D4AE7
:109D2000FB24C1F81845016812682B4C21F00F0183
:109D300002F00F020A434FF40071026021603CE719
:109D4000264A0123C2F80435D2F80034002BFBD098
:109D50004FF010231221214AC3F80012D2F8003428
:109D6000002BFBD04FF0102312211C4AC3F8041221
:109D7000D2F80034002BFBD000231849C2F8043578
:109D8000D1F80034002BFBD0BFF34F8F0749144BA1
:109D9000CA6802F4E0621343CB60BFF34F8F00BF89
:109DA000FDE700BF300100103401001000ED00E0BD
:109DB000242300200090D003E80F00F0E00F00F013
:109DC00000C000408C56004000F000404881030075
:109DD000E40E0040580200104096024000E00140AE
:109DE0000400FA05064B1A5C1F2A86BF02F01F0208
:109DF00004494FF0A04101239340C1F80C3570474E
:109E00007CD9020000030050064B1A5C1F2A86BF53
:109E100002F01F0204494FF0A04101239340C1F812
:109E2000083570477CD9020000030050C30706D4F0
:109E3000830742BF2E4B0C22C3F81827704770B41B
:109E40004FF08043D3F84036DA0722D44FF0A043D6
:109E50002749032240264FF480754FF40074C3F85D
:109E60001827C3F82027C1F82427C3F83027C3F8E0
:109E700008654FF48052C3F80855C1F808458107BA
:109E8000C3F8082503D51A4B0C22C3F8182770BC59
:109E900070474FF01023D3F8043303F00703072B68
:109EA000D4D1144B0122C3F80425D3F80024002A8E
:109EB000FBD04FF010210020D1F804230D4C22F0EC
:109EC000070242F00402C1F80423C3F80405D4F8E1
:109ED0000034002BFBD0BFF34F8F0749074BCA68F4
:109EE00002F4E0621343CB60BFF34F8F00BFFDE786
:109EF0000003005000E0014000ED00E00400FA051E
:109F000010B568B90E4CA368012262703BB1D3E969
:109F100000230020A2609847A368002BF7D110BD52
:109F20000128FCD1064C2369A070002BF7D0D3E99F
:109F300000230120226198472369002BF7D110BD2F
:109F4000982A002070B910B5074CA36801226270EE
:109F50003BB1D3E900230020A2609847A368002BFF
:109F6000F7D110BD704700BF982A002030B50128F6
:109F700083B026D0D8B1032817D1294C00F0DCF8E3
:109F800000230DF107008DF80730FEF7DDFCE368D4
:109F9000013BE360E36823B9224BD3F80054002D62
:109FA00037D09DF80700FEF7F5FC03B030BD1E4B1F
:109FB0000122C3F88020BFF34F8FBFF36F8F03B030
:109FC00030BD174C00230DF107008DF80730FEF768
:109FD000BBFC237853B1E3689DF8070001330122ED
:109FE000E360A270FEF7D6FC03B030BD0F4863609B
:109FF000A3602361E36000F093F802F043FF60B1D7
:10A000000123084A2370D2F80024002AE3D0A37069
:10A01000E1E700F0A3F8A570C3E700F08DF8EFE7E3
:10A02000982A00200000014000E100E0019F0200AA
:10A0300030B585B0047845688DF80040D0E902401D
:10A04000064A074B039053F8213001958DF80840DC
:10A0500052F821106846984705B030BDAC2A002060
:10A06000B42A002030B585B0047845688DF80040EA
:10A07000D0E90240064A074B039053F8213001957E
:10A080008DF8084052F821106846984705B030BD59
:10A09000AC2A0020B42A00202DE9F043DFF87480B8
:10A0A00006784B7F08F806300D46844617460FCDDC
:10A0B00089B06C460FC495E80F009CF80050DFF89B
:10A0C0005890DFF858E018F8055049F8267084E8F1
:10A0D0000F004EF8260004965DB1002F0B4A69462A
:10A0E0000CF1040008BF3A4601F0B6F809B0BDE82B
:10A0F000F083002F064A69460CF10C0008BF3A466F
:10A1000000F01CFE09B0BDE8F08300BF31A00200E2
:10A1100065A00200FC2C0020B42A0020AC2A0020FC
:10A12000044A137923B901211060918018467047C1
:10A1300085207047BC2A0020074B1A68D20704D438
:10A14000C02283F8002301221A604FF080430122CD
:10A15000C3F81825704700BF00E100E010B40B4BB6
:10A160000B494FF0804200200224C2F8084383B01C
:10A1700018601B680193012301980B60D2F8183412
:10A18000DB03FBD403B05DF8044B704704010040CF
:10A190000C00004010B5154B1A6882B062B1002166
:10A1A000134A19601B68507900934FF080410123D6
:10A1B000009CC1F80833A8B10E4B1A6882B1002286
:10A1C0001A601B6801934FF080420221084B0198EE
:10A1D000C2F808131B68012002B0BDE81040184700
:10A1E00002B010BD116853718847E5E700010040D7
:10A1F000BC2A00200401004030B5254C94F86A3098
:10A2000083B0002B41D14FF0FF32FF254FF6FF7096
:10A2100005E05A09012A0CBF02464FF0FF3203F055
:10A220001F01CA40D20744BFE21882F830502F2BDA
:10A2300003F10103EDD14FF0FF3306220021154851
:10A240002366C4E90033C4E90233C4E90433C4E932
:10A250000633C4E90833C4E90A3302F0DDFF0E4BCC
:10A26000C02283F8062340221A600C4B0C4A0020BF
:10A2700018601B680193019D01214FF0004384F891
:10A280006A10C2F8043303B030BD082003B030BDFB
:10A29000C42A0020282B002000E100E07C6100405F
:10A2A00000600040034B93F86A00003018BF0120A3
:10A2B000704700BFC42A0020F0B5704B1C1894F9F9
:10A2C0003050002D63DA8E78C6F340069646002E95
:10A2D00057D01D68013500F0C3800124082553F8CC
:10A2E0002470013756D004F1010C53F82C7001375B
:10A2F0004FD0A71CAF4242D253F82720013200F0C2
:10A30000AD8004F1030CAC4539D253F82C70013701
:10A310003FD004F1040CAC4531D253F82C70013716
:10A3200037D004F1050CAC4529D253F82C70013715
:10A330002FD004F1060CAC4521D253F82C70013714
:10A3400027D004F1070CAC4519D253F82C70013713
:10A350001FD004F1080CAC4511D253F82C70013712
:10A3600017D004F1090CAC4509D253F82C70013711
:10A370000FD00A34AC4202D2DC6A01346CD0042023
:10A38000F0BD1D6A013571D009240C25A7E708200E
:10A39000F0BD64461F1865B243F824E087F83050DA
:10A3A00016B91C4484F858008A7854071AD4D60782
:10A3B00041D41F284C7887BF314E00F01F0202465F
:10A3C0004FF0A04602F5E072A40046F822402D4E60
:10A3D000C40800F0070C375D012202FA0CF23A4380
:10A3E00032558A78097812F002021AD0AB0003F1D4
:10A3F000804303F5C0430202D3F8100520F44F3028
:10A4000020F44070C3F810050904D3F8100501F4D6
:10A41000403102F47C520A430243C3F81025002065
:10A42000F0BD083D2B44104693F8602042EA8111AC
:10A4300083F86010F0BD1F2887BF114A00F01F0489
:10A4400004464FF0A04202EB8402D2F8004724F009
:10A450000204C2F80047BAE70B249BE73C4699E7A1
:10A460000025C3F800E084F830509DE7082684F802
:10A4700030601A623546344693E700BFC42A002094
:10A4800000030050282B002070B4394C251883B0ED
:10A4900095F93030072B10DD234493F858309B0991
:10A4A000032B34D0012B0CBF4FF400314FF440315B
:10A4B0001F284CD84FF0A04339E0DAB2072A23D83E
:10A4C000980000F1804000F5C04003F14002920086
:10A4D000D0F8106592B202F1804202F5C04246F017
:10A4E0000106C0F810650020106012680192019A00
:10A4F00051B195F9302054F822202AB101221D498A
:10A5000002FA03F3C1F8043303B070BC70471F288C
:10A5100020D9194BD3F8103500F01F00C34013F0B9
:10A52000010F14BF4FF440314FF40031124B03EBD5
:10A530008000D0F8002722F44032C0F80027D0F87D
:10A5400000370B43C0F8003703B070BC704700F011
:10A550001F00EBE74FF0A0421346D2F81025C2408F
:10A5600012F0010F0CBF4FF400314FF44031DEE721
:10A57000C42A00200060004000030050194B03442F
:10A5800093F93030072B13DD1F288ABF164B4FF08D
:10A59000A04300F01F0003EB8000D0F8003723F445
:10A5A0004033C0F80037D0F80037C0F800377047A4
:10A5B000DAB2072A14D810B49A0002F1804202F5E8
:10A5C000C0420A4CD2F81005012120F0010001FA26
:10A5D00003F3C2F81005C4F808335DF8044B704764
:10A5E000704700BFC42A00200003005000600040F4
:10A5F0001F288ABF054B4FF0A04300F01F00D3F87F
:10A60000103523FA00F000F00100704700030050FD
:10A610002DE9F047002384B0CDE90233184A1168D0
:10A62000012900F025821E46164B1A68012A00F007
:10A630001182154B1A68012A00F0FE81134B1A682B
:10A64000012A00F0EB81124B1A68012A00F0D88130
:10A65000104B1A68012A00F0BF810F4B1A68012ABB
:10A6600000F0AC810D4B1A68012A1BD00C4B1A6804
:10A67000012A00F01D82002E37D104B0BDE8F0871A
:10A680000061004004610040086100400C6100402E
:10A690001061004014610040186100401C610040DE
:10A6A0007C610040D34AD2F804231206DED5002292
:10A6B0001A6019680091603319680098012946F002
:10A6C000800612D11A601B6801934FF0A042019BD3
:10A6D000D2F82015C84B0291C2F82015D3F82025D6
:10A6E0000392C3F8202546F00046C44F00240125FC
:10A6F000A30003F18043354203F5C0434FEA45050B
:10A700000BD0D3F8100557F82420D3F81015C0F358
:10A710000520C1F3014102B190470134082CE7D173
:10A72000002EAADAB54CB44E01254FF0A04794F99B
:10A7300060104B1C45D0C9B204AB21F0C00003EB44
:10A74000D00201F0070312F8082C05FA03F31A42AD
:10A7500037D01F2800F2228102464FF0A04909EBB2
:10A76000820304EB000ED3F800C7D3F800879EF9EC
:10A7700030E028F44038C3F80087CCF3014CD3F81C
:10A7800000A754F82E80BCF1020F0CBF4FF4403EDE
:10A790004FF4003E05FA02F24EEA0A0EC3F800E753
:10A7A000C9F82025B8F1000F0BD08909032900F062
:10A7B0007381BCF1020F00F09981BCF1030F00F02E
:10A7C000688194F96110481C45D0C9B204AB21F0EE
:10A7D000C00003EBD00201F0070312F8082C05FAC1
:10A7E00003F31A4237D01F2800F2DC8002464FF0F4
:10A7F000A04909EB820304EB000ED3F800C7D3F89D
:10A8000000879EF930E028F44038C3F80087CCF385
:10A81000014CD3F800A754F82E80BCF1020F0CBFF6
:10A820004FF4403E4FF4003E05FA02F24EEA0A0EA3
:10A83000C3F800E7C9F82025B8F1000F0BD089094B
:10A84000032900F02E81BCF1020F00F04781BCF11A
:10A85000030F00F0238194F962104A1C45D0C9B25D
:10A8600004AB21F0C00003EBD00201F0070312F8A3
:10A87000082C05FA03F31A4237D01F2800F29680FD
:10A8800002464FF0A04909EB820304EB000ED3F817
:10A8900000C7D3F800879EF930E028F44038C3F8A9
:10A8A0000087CCF3014CD3F800A754F82E80BCF1FC
:10A8B000020F0CBF4FF4403E4FF4003E05FA02F287
:10A8C0004EEA0A0EC3F800E7C9F82025B8F1000FD8
:10A8D0000BD08909032900F0E980BCF1020F00F0D8
:10A8E0000181BCF1030F00F0DE8094F963104B1C72
:10A8F00044D0C9B204AB21F0C00003EBD00201F098
:10A90000070312F8082C05FA03F31A4236D01F2861
:10A9100050D802464FF0A04909EB820304EB000E29
:10A92000D3F800C7D3F8008728F44038C3F800876D
:10A93000CCF3014C9EF93080D3F800E754F828801E
:10A94000BCF1020F0CBF4FF4403A4FF4003A05FA45
:10A9500002F24EEA0A0EC3F800E7C9F82025B8F162
:10A96000000F0BD08909032900F09180BCF1020F80
:10A9700000F0C080BCF1030F00F08680D7F82025DE
:10A980000292C7F82025D6F820350393C6F8203563
:10A9900013437FF4CCAE04B0BDE8F08701F01F0292
:10A9A000B146DCE601F01F02B14622E701F01F02CA
:10A9B000B14668E701F01F02B146ADE70D4AD2F893
:10A9C000042351067FF54EAE00221A601B680093E7
:10A9D000009B46F0400645E6064AD2F8042390065E
:10A9E0007FF53BAE00221A601B680093009B46F087
:10A9F000200632E60060004000030050C42A002018
:10AA00003E4AD2F80423D4067FF522AE00221A6013
:10AA10001B680093009B46F0100619E6374AD2F8EF
:10AA2000042315077FF50FAE00221A601B68009300
:10AA3000009B46F0080606E6304AD2F80423570782
:10AA40007FF5FCAD00221A601B680093009B46F066
:10AA50000406F3E5294AD2F8042392077FF5E9AD0D
:10AA600000221A601B680093009B46F00206E0E596
:10AA70002249D1F8046316F001063FF4D5AD136006
:10AA800013680093009BCFE502297FF477AFC0479E
:10AA900074E702297FF495AEC04792E602297FF45D
:10AAA000DAAEC047D7E602297FF41FAFC0471CE7E4
:10AAB00000221A601B6801934FF0A042019BD2F85C
:10AAC00020150F4B0291C2F82015D3F820250392D0
:10AAD000C3F82025002E3FF425AE04E601297FF4BB
:10AAE000BAAEDEE701297FF400AFDFE701297FF48A
:10AAF00068AED1E701297FF441AFC8E700600040AC
:10AB000000030050014B1B68184700BF302B00208A
:10AB1000114B98421DD130B583B000230DF10700D1
:10AB20008DF807300D46FDF70FFF0C4B1C794CB923
:10AB300001229DF807001D601A71FDF72BFF2046CA
:10AB400003B030BD9DF80700FDF724FF112003B0CE
:10AB500030BD0020704700BF00200040302B002097
:10AB6000034B984203D1034B00221A601A717047BD
:10AB700000200040302B002030B56E4AD2F804335C
:10AB800099058BB066D5D2F82431002B62D0002312
:10AB9000C2F82431D2F8243101934FF40171664B8D
:10ABA0000198C2F8081393F8291009B901215160DE
:10ABB000604902228DF81820D1F88024C1F8802441
:10ABC0009869D96809920022CDE90710C3E90622E5
:10ABD000D3E9001406A8A047564AD2F81C31C3B1E5
:10ABE000554B5869196A884269D993F8281001F0C1
:10ABF000FF00002963D1C2F81C01D2F81C11039197
:10AC000003999C68186A196A205C01311962C2F8BC
:10AC10001C05484AD2F84431D3B10021464BC2F852
:10AC20004411D2F8440193F82910009000980029AB
:10AC30005CD19A6962B10022586AD9689A6101228E
:10AC4000CDE907108DF8182006A8D3E90012904727
:10AC50000BB030BD374AD2F804335B07BCD5D2F80D
:10AC60000831002BB8D0344B9969002941D000211C
:10AC7000C2F80811D2F8081104910499D868596AE9
:10AC8000D2F8182542545A6A996901325A625A6AAE
:10AC90008A42A1D1DA691968002A33D0D8685D6A7E
:10ACA0001C699A61079000220120DC60DA615A6217
:10ACB0008DF8180008955B6806A898478CE71D4A30
:10ACC0000021C2F81C11D2F81C210292029A5A6982
:10ACD000002A9ED058699A688DF81810089059611A
:10ACE000079206A8D3E90012904792E7012111606C
:10ACF0009FE7C2F80811D2F8080105900598D2F82C
:10AD00001825C4E793F8292012B90A4A0120506097
:10AD1000084A4FF40170C2F80803586ADA680890CC
:10AD20000024012007928DF818005A689C6106A83B
:10AD3000904751E700200040382B00202DE9F041DA
:10AD4000DFF8D88107792C2606FB078682B096F8B3
:10AD50002A30002B40F09A800C4605466A4900686C
:10AD60001646FFF7D5FE002840F08C802368591C5A
:10AD700019D01F2B4FF001028ABF64494FF0A04148
:10AD800003F01F0302FA03F3C1F8083523681F2BF1
:10AD900086BF03F01F035D4A4FF0A04203F5E07346
:10ADA000032142F8231063685A1C0BD01F2B86BF67
:10ADB00003F01F03554A4FF0A04203F5E073002152
:10ADC00042F823102B68A269C3F82425217D637DF6
:10ADD0002A680B43C2F86C35D4E900122B68C3F81B
:10ADE0001425C3F80C15237D012B59D02C2303FB0C
:10ADF00007F308EB03025660226948F8032076B394
:10AE00002A68237F424C0021C2F81C11D2F81C2171
:10AE100000922A68009EC2F84411D2F844112A68B0
:10AE200001910199C2F804432A68120B51B25B01E7
:10AE30000029DBB22EDB01F1604101F5614181F8AF
:10AE4000003329680A0B53B2002B09DB01215B098F
:10AE5000304C02F01F0201FA02F244F82320296864
:10AE60002C2303FB0783002201250424C1F800459D
:10AE700083F82A50C3E9062283F829205A6102B0D8
:10AE8000BDE8F081112002B0BDE8F081082002B0D9
:10AE9000BDE8F081204902F00F0211440B76D0E7A3
:10AEA000A368591C0BD01F2B86BF03F01F03174943
:10AEB0004FF0A04103F5E073002241F82320E3683E
:10AEC0005A1C1AD01F2B8ABF10494FF0A04103F023
:10AED0001F03012202FA03F3C1F80835E3681F2BB0
:10AEE00088BF03F01F0303F5E0738CBF07494FF0E1
:10AEF000A041032241F82320E3682A68A168C2F830
:10AF00000835C2F8101571E779AB02000003005054
:10AF10008000020000E100E0FCEC00E0382B0020A3
:10AF2000F8B53D4F047902682C2303FB047300211C
:10AF30005B68C2F80015B3B10368384AC3F8082348
:10AF40000368190B4AB2002A0EDB52092032012392
:10AF5000334D01F01F0103FA01F145F82210BFF350
:10AF60004F8FBFF36F8F0368D3F80C65D3F8145578
:10AF7000D3F80825D3F810154FF0FF3CC3F814C5DB
:10AF8000C3F80CC503686645C3F808C5C3F810C507
:10AF90000CD01F2E86BF06F01F06224B4FF0A04399
:10AFA00006F5E0764FF0020C43F826C06E1C0BD07D
:10AFB0001F2D86BF05F01F051A4B4FF0A04305F566
:10AFC000E075022643F825604D1C0BD01F2986BF73
:10AFD00001F01F01134B4FF0A04301F5E071022572
:10AFE00043F82150531C0BD01F2A86BF02F01F02CA
:10AFF0000C4B4FF0A04302F5E072022143F82210FF
:10B000000068FFF7ADFD2C2303FB0474002384F8D4
:10B010002A306360F8BD00BF382B00208402020094
:10B0200000E100E0000300502DE9F041314E0579C8
:10B030002C2303FB05630446586984B000284CD1D7
:10B040005A619960186283F828002268C2F81C01CE
:10B05000D2F81C11226802910121029F916022689E
:10B06000D3F808C0C2F81C01D2F81C110191019953
:10B070001F6A196A1CF8077001311962C2F81C7541
:10B080005A6812B104B0BDE8F0815F691A6A21689C
:10B0900097421BD9864602E093F828200ABBD1F8D4
:10B0A0001C21002AF8D0C1F81CE1D1F81C21039220
:10B0B000039AD3F820801A6A1CF8088001321A62B9
:10B0C000C1F81C851A6A9742E9D82168D1F81C3169
:10B0D000002BFBD00123CB6004E0112004B0BDE8BD
:10B0E000F0810F202C2303FB056500236B6104B066
:10B0F000BDE8F081382B0020F0B5554BD3F8242162
:10B100008BB0002A73D00021C3F82411D3F8242176
:10B11000049202228DF81820049AD3F880044D4A34
:10B12000C3F880040990D3F83C05D3680890C2E9BD
:10B13000061107931168536806A89847444BD3F843
:10B14000442152B10021434AC3F84411D3F84401C9
:10B15000916903900398002938D13D4BD3F8202101
:10B160005AB10021C3F82011D3F820210292012006
:10B17000384A029CD8605069D8B9354BD3F8582169
:10B18000AAB10021C3F85811D3F85801314A0190EF
:10B190000198506958B1D3F84C05936808908DF820
:10B1A00018105161079306A8D2E9001398470BB015
:10B1B000F0BDD3F84C05936808908DF818105161D4
:10B1C000079306A8D2E900139847D6E7D3F83C3591
:10B1D000D168089300240025012307918DF81830C9
:10B1E000C2E90645D2E9001306A89847B5E7D3F8A7
:10B1F00010110029A2D0C3F81021D3F8101115485E
:10B20000059105998169D3F83C458C4296D1C56971
:10B21000C768D0E900168DB1D3F800C285612CF063
:10B220002005C261C3F800520369C3600122CDE961
:10B2300007748DF8182006A8B0477FE701238561C1
:10B24000CDE907748DF8183006A8B04776E700BF3F
:10B2500000200040682B00202DE9F04307797F4E45
:10B260004FEAC70808EB070506EB850587B095F898
:10B270002030002B40F0B3800D460446784900682A
:10B280009146FFF745FC002840F0A5802B68591C2B
:10B2900019D01F2B4FF001028ABF72494FF0A04115
:10B2A00003F01F0302FA03F3C1F808352B681F2BC4
:10B2B00086BF03F01F036B4A4FF0A04203F5E07313
:10B2C000032142F823106B685A1C0BD01F2B86BF3A
:10B2D00003F01F03634A4FF0A04203F5E07300211F
:10B2E00042F823102368A969C3F82415297D6A7DD3
:10B2F00023680A43C3F86C25D5E900312268C2F8F7
:10B300000C35C2F814152B7D012B72D008EB070207
:10B310009200B318C3F804902B69B3502168B9F1B7
:10B32000000F47D000222B7FC1F81021D1F8101157
:10B3300001912168DDF804C0C1F82021D1F8201165
:10B3400002912168DDF808C0C1F82421D1F8241148
:10B3500003912168DDF80CC0C1F84421D1F84411F3
:10B3600004912168DDF810C0C1F85821D1F85811B6
:10B37000226805913C4D0599C2F804532268120BCE
:10B3800051B25B010029DBB22DDB01F1604101F517
:10B39000614181F8003321680A0B53B2002B09DBAD
:10B3A00001215B09314D02F01F0201FA02F245F85A
:10B3B0002320216808EB070306EB83030022012505
:10B3C0000824C1F8004583F82050C3E906225A61D9
:10B3D00007B0BDE8F083112007B0BDE8F083082076
:10B3E00007B0BDE8F083224902F00F0211440B764A
:10B3F000D1E7AB68591C0BD01F2B86BF03F01F038E
:10B4000018494FF0A04103F5E073002241F82320D2
:10B41000EB685A1C1AD01F2B8ABF12494FF0A0416B
:10B4200003F01F03012202FA03F3C1F80835EB68A9
:10B430001F2B88BF03F01F0303F5E0738CBF09497E
:10B440004FF0A041032241F82320EB682268A9684D
:10B45000C2F80835C2F8101558E700BF682B002065
:10B46000F9B00200000300501003420000E100E0C8
:10B47000FCEC00E02DE9F0410679544C0268F5003F
:10B48000AB1904EB830382B05B68B3B1504BC2F8D5
:10B49000083303681B0B59B200290EDB4909203120
:10B4A0000127DFF834C103F01F0307FA03F34CF858
:10B4B0002130BFF34F8FBFF36F8FA91904EB8101C8
:10B4C000D2F80032896923F02003C2F8003241B17A
:10B4D0000023C2F84431D2F844310093012300998B
:10B4E00053600023C2F85831D2F858310193AB1998
:10B4F000012104EB8303019FD1609969D2F858318F
:10B50000002BFBD019B1D2F84431002BF6D0002328
:10B51000C2F8003503684FF0FF38D3F80CE5D3F8D4
:10B5200014C5D3F80815D3F81075C3F80C85C3F803
:10B5300014850368C645C3F80885C3F810850CD088
:10B54000BEF11F0F86BF0EF01F0E22484FF0A04025
:10B550000EF5E07E022340F82E30BCF1FF3F0CD008
:10B56000BCF11F0F86BF0CF01F0C1A484FF0A04013
:10B570000CF5E07C022340F82C30781C0BD01F2FF8
:10B5800086BF07F01F0713484FF0A04007F5E0778C
:10B59000022340F827304B1C0BD01F2986BF01F037
:10B5A0001F010C484FF0A04001F5E071022340F864
:10B5B00021301046FFF7D4FA354404EB850400230C
:10B5C00084F82030636002B0BDE8F081682B002071
:10B5D000100342000003005000E100E001F060436E
:10B5E000B3F1005F2DD1F0B40579284EEF007C193E
:10B5F00006EB840482B06369002B3FD16261A160D5
:10B600000268C2F82031D2F820C10268CDF804C027
:10B61000DDF804C0C2F85831D2F85821009202680F
:10B62000DDF800C0D4F814C0C2F84415C2F848C50B
:10B63000026801219160626832B1184602B0F0BC24
:10B640007047102318467047026800E0DBB9D2F853
:10B650002011D2F858310029F8D0A3B90121D160C6
:10B660000168D1F85821002AFBD03D4406EB85063D
:10B6700000221846726102B0F0BC704711231846D0
:10B6800002B0F0BC70470F23EFE700BF682B00202B
:10B6900072DF704773DF704776DF70477ADF70477D
:10B6A0007CDF70477FDF70478FDF7047B1DF704707
:10B6B000FCF7B6BE08B5037803B108BD054B3B21C6
:10B6C0001888FFF7E9FF0028F7D0BDE80840FCF72D
:10B6D000A7BE00BF42230020262801D0FCF7A0BE51
:10B6E000104B1148C01AC008000410B540F0030008
:10B6F0000C460E49FCF78CF80D4B0E491888224673
:10B7000001F012FB30F0080207D043F2020290422F
:10B7100003D043F20142904200D110BDBDE8104079
:10B72000FCF77EBEC0DF0200E8DF0200CCD90200D9
:10B7300042230020F42B002010B50C4B0C4CE41AD3
:10B74000E408240444F0030402203AB1FEF74AFB63
:10B7500020460849BDE81040FCF75AB8FEF754FBF4
:10B7600020460549BDE81040FCF752B8C0DF020092
:10B77000E8DF0200E8D90200FCD90200FCF750BE65
:10B7800010B50388103B82B00446462B44D8DFE84E
:10B7900003F06324437F43434343434343434343CF
:10B7A0004343434F4343434343434343434343435D
:10B7B0004343434343434343434343434345434357
:10B7C0004343434343434343434343434343434349
:10B7D00043434343594343434500374B3748384974
:10B7E000C01AC008000440F00300FCF711F8012063
:10B7F000FEF70AFB334B4FF6FF721A80FCF7E2FDAF
:10B80000002855D1304B01211878FFF743FF00285D
:10B810004BD10020FEF7E6FA02B010BD808813215C
:10B82000FFF73AFF0028F7D0FCF7FAFD02B010BD91
:10B8300000238088ADF8043001A9FFF735FF002808
:10B84000EAD0F1E71F4A0023108819461A46FFF78D
:10B850002DFF0028E0D0E7E7174B18481B49C01A16
:10B86000C008000440F00300FBF7D2FF0120FEF700
:10B87000B9FA0020FEF7C8FA124BA18814481980C3
:10B8800001F048F970B9FCF787FD0028C4D0CBE778
:10B890000C4A0023108885211A46FFF703FF002871
:10B8A000BAD0C1E7FCF7BCFDEDE7FCF7B9FDB0E7A6
:10B8B000FCF7B6FDA6E700BFC0DF0200E8DF02002C
:10B8C000BCD902004223002040230020B0D902004E
:10B8D0000C2C002000B54FF48041A7B00020FBF7EE
:10B8E00017FE002840F0ED80FBF702FE0120FEF776
:10B8F0009DFAFCF777FF002840F0168140F23332C2
:10B9000001218B48FCF7E8FC002840F00A81FEF793
:10B9100069F8002840F0028101F028FA002840F080
:10B92000FA80002317A90120179301F0FBFA0028E1
:10B9300040F0EE8017A801F0B3FB002840F0E5804E
:10B9400011237C488DF8203001F06EFC794982B2D9
:10B9500008A8FFF7A5FE002840F0D48008220021A7
:10B9600017A801F059FC744B179317A84FF0C87330
:10B970001893FFF793FE002840F0C18000216F4824
:10B9800000F0C4FF002840F0B78000226C4B6D48E7
:10B99000029208A9089301F0ABF8002840F0A980B2
:10B9A000694B6A48029302A901F056F9002840F059
:10B9B0009D8041F211130021082217A8ADF86230D2
:10B9C00001F02AFC17A9624800F0DCF8002840F0DA
:10B9D0008A80604B604C1B6801933C22002108A8C0
:10B9E00001F01AFC022040F201633C2200218DF894
:10B9F000200017A8ADF8223001F00EFC22460125E8
:10BA000001AB08A852F8041BADF86C501C9300F071
:10BA1000C7F9002864D1A168504A17A800F0C0F9FE
:10BA200000285AD11822002102A801F0F5FB0120BC
:10BA300000234FF4807540248DF8080002AA46497F
:10BA40004748ADF814300393ADF81C500494FFF749
:10BA50001FFE00283ED11C22002117A801F0DCFBAC
:10BA60000023404A1793ADF86A308DF86C303E4B96
:10BA70004FF4A0254FF4A034032117A8CDE91854A2
:10BA80008DF86810CDE91C2300F0CCFCF8B9374BD9
:10BA900037483849C01AC008000440F00300FBF7DB
:10BAA000B7FE2F4B01211878FFF7F4FD60B9002095
:10BAB000FEF798F9FBF782FD0028FBD1FDF7A8FF00
:10BAC000F8E7FCF7ADFC0FE7FCF7AAFCEFE7FCF7A3
:10BAD000A7FCDCE7FCF7A4FCBDE7FCF7A1FCA1E7B1
:10BAE000FCF79EFC97E7FCF79BFC72E7FCF798FCE1
:10BAF0005FE7FCF795FC53E7FCF792FC45E7FCF7A2
:10BB00008FFC3BE7FCF78CFC28E7FCF789FC17E788
:10BB1000FCF786FC0EE7FCF783FC02E7FCF780FCF1
:10BB2000FAE6FCF77DFCF2E6FCF77AFCE6E600BFFD
:10BB30002823002010DA02005000A000E02B002093
:10BB4000B1B602000C2C002039B70200F42B002003
:10BB50008C2B0020ACD90200302300203C23002095
:10BB600040230020B5B602007DB70200C0DF02000E
:10BB7000E8DF020020DA0200A8DF7047AADF704782
:10BB800062DF7047F0B595B0002869D0002967D012
:10BB9000354B0A68026004460E460FCB04AD4FF6E3
:10BBA000FF7785E80F00E781284604F11001FFF7D1
:10BBB000E7FF054610B1284615B0F0BD237C8DF88F
:10BBC0000A30221D4FF4A05302A90120ADF808301D
:10BBD000FFF7D2FF05460028EDD129460DA81C220B
:10BBE00001F01AFB9DF834300E9501AF23F01A03D3
:10BBF00043F00A03294638460322CDE91055CDE922
:10BC000012558DF8343001F007FB9DF80630B179FC
:10BC1000F2798DF8041023F01F0343F00203294644
:10BC20008DF80630257C8DF8052041F2014308A8E7
:10BC300014228DF80E50ADF80C30012501F0ECFA0D
:10BC400003AE08AA0DA9A31DA0880A95ADF82C5033
:10BC5000CDE90867FFF792FF0546284615B0F0BD0D
:10BC60000E25284615B0F0BD38DA020031B128B1F2
:10BC70000388102B07D0112B01D0704770474FF667
:10BC8000FF73CB81704700B583B08388CB810323DA
:10BC90008DF8043008460B6801A9984703B05DF899
:10BCA00004FB00BF6DDF704779DF70477DDF7047B1
:10BCB00064DF70472DE9F04F87B00488119DDDF8EF
:10BCC00040A02E880396BDF848600196002C56D0FF
:10BCD0004FF000091E460292884607464C4603E094
:10BCE0003A88013494422BDAD8F8003053F8240013
:10BCF000059000220DF1130105A8FFF7D9FF834637
:10BD000050BB9DF81320B242EAD12A889119B9F1AB
:10BD1000000F25D0019B8B4237DB52440DF11301FC
:10BD200005A84FF00109FFF7C3FF002833D1298888
:10BD30009DF813200A442A803A8801349442D3DBC8
:10BD4000B9F1000F1BD02A88039B013AD21A92B294
:10BD5000FF2A1AD80AF80320584607B0BDE8F08F2A
:10BD6000019B023101328B4292B20EDB029B2A8090
:10BD70000AF802302A88013292B22A80CDE74FF0C9
:10BD8000000B584607B0BDE8F08F4FF00C0B58463B
:10BD900007B0BDE8F08F8346584607B0BDE8F08F86
:10BDA0002DE9F04700231788138090F82D3088B0D4
:10BDB000144605460E46002B40F0FF80AA78002A64
:10BDC00040F0F480E978A1B1DA1CBA4200F2F180C7
:10BDD0000222F254238801339BB201222380F254C1
:10BDE000238813449BB22380F154238813449BB2CD
:10BDF00023806A68AAB1D91CB94200F2DA80022114
:10BE000092F90020F154238801339BB20A21238048
:10BE1000F154238801339BB22380F25423880133E9
:10BE200023802B89002B40F0F2802B8A002B40F0DE
:10BE300027812B8B002B40F08F812B6A002B44D065
:10BE40002088821DBA4200F2B4801A88052A40F286
:10BE50007F816FF4486802EB080189B24FF27D3CA4
:10BE6000614540F275815988052940F271816FF46E
:10BE7000486E8E441FFA8EFEE64540F269814FF609
:10BE8000FF7C624504D0614502D08A4200F26081A5
:10BE9000052232542288013292B212212280B154FA
:10BEA0002288013292B222801988B1543244090AA0
:10BEB00051702288023292B222805B88B35432449D
:10BEC0001B0A53702388023323806B6A002B2FD008
:10BED0009988B4F800C0881C0CF102020244BA42EE
:10BEE00067D8FE2865D8033106F80C102288013285
:10BEF00092B2FF212280B1542288013292B2228074
:10BF00001988B1543244090A51702088023080B235
:10BF100020809A8862B199680593002900F0188101
:10BF2000304401F06BF9059B9A88238813442380E1
:10BF300095F82C30002B40F0BF802878002839D0AD
:10BF40002B88012B00F0048123889A1CBA4230D838
:10BF5000012804D16978023119448F4229D3023F64
:10BF6000FF1ABFB2B01806A9ADF81870FFF79EFE11
:10BF700000BB2A78BDF81830022A00F00F816978DA
:10BF80009942C0F006819F42C0F003810921FE2B37
:10BF90000FD822885D1CB5542288013292B22280CB
:10BFA000B154228801321344238003E00433BB429E
:10BFB00049D90C2008B0BDE8F087082FF9D906A8A8
:10BFC000FFF770FE0028F5D123880822F254238859
:10BFD00001339BB21B222380F2542088013080B2AF
:10BFE0002080062230440DF1190101F007F9238861
:10BFF0009DF8182006339BB212F0FE0218BF0122F2
:10C000002380F254238801339BB22380D6E605F1C6
:10C01000080805F10C090223CDE9014700964046C6
:10C0200049461A46FFF746FE0028C3D1CDE901472D
:10C0300000964946404610230622FFF73BFE0028A3
:10C040003FF4F3AEB6E706A8FFF72EFE0028B1D105
:10C050002388BDF818200321F154238801339BB2B3
:10C0600019212380F154238801339BB2F1182380D6
:10C07000F254120A4A70238802339BB22380A1E64D
:10C0800005F1100805F11409CDE901470096404675
:10C09000494602230322FFF70DFE00288AD1CDE98D
:10C0A000014700964946404610230722FFF702FE4B
:10C0B00000283FF4BEAE7DE7D5F82880B8F1000F28
:10C0C00046D0B8F804200232FE2A3FF672AF238829
:10C0D0004FF000094FF0160A08E0AA6A02EB880840
:10C0E000B8F804200232FE2A3FF663AF0132F25460
:10C0F000238801339BB2238006F803A023880133F1
:10C100009BB22380B8F80020F2543344120A5A70CC
:10C11000238802339BB22380B8F80410F0180A4633
:10C1200059B1D8F80830194693B101F067F8B8F85A
:10C130000420238813449BB2238009F1010995F858
:10C140002C205FFA89F94A4509EB4908C5D8F4E67D
:10C15000072008B0BDE8F08705F1180805F11C09B3
:10C16000CDE9014700964046494602231422FFF7D5
:10C17000A1FD00287FF41EAFCDE901470096494696
:10C18000404610231522FFF795FD00283FF455AED9
:10C1900010E7012A06D03B460821F8E69F42BFF48B
:10C1A000F5AEF8E78F42F6D30B460821EFE600BF65
:10C1B00075DF704776DF70477ADF70477BDF704747
:10C1C00070B51B4C238885B2AB4282B011D1194E99
:10C1D000217A327B91420ED3337C00222272DBB96A
:10C1E000736933B10022ADF806508DF8042001A820
:10C1F000984702B070BD184604F10A01FFF7D8FF56
:10C2000028B11128F5D0B369002BF1D1F1E7237AD9
:10C210000133237202B070BD3B212846FFF7CAFFED
:10C2200030F00803DCD0B369002BD9D09847D7E7AA
:10C23000342C0020182C00202DE9F0410388112B0C
:10C2400082B0044675D00BD9122B49D0502B04D1A3
:10C25000714EC288F3899A427ED002B0BDE8F08167
:10C26000102BFAD1C37B012BF7D16C4D29884FF6E7
:10C27000FF72914240F0B280694F8288664E2A80F8
:10C2800003CFC5F80A00C5F80E10618A6F89F089DE
:10C290004FF0000C8F4285F808C000F29280AF8901
:10C2A0008F42C0F08E80E989A78A40F2F314A14240
:10C2B00094BF4C1A0C1BBC4200F2838001F2F311B4
:10C2C000B9427ED36B720028C7D17369002BC4D0EA
:10C2D0000121ADF806208DF8041001A89847BCE7AD
:10C2E0004E4D82882B889342B7D141896889884214
:10C2F00058D8A889884255D3E989A48940F2F31017
:10C30000814294BF481A081AA0424BD801F2F31197
:10C31000A14247D3404A52694FF480712981002AD3
:10C320009BD00121ADF806308DF8041001A890478C
:10C3300093E73A4D82882B889A428ED16868FCF741
:10C34000E1FA18B1344B9B6903B198474FF6FF737C
:10C350002B8002B0BDE8F081038A022B7FF47DAF11
:10C360002E4DB0F804802F8847457FF476AF123009
:10C3700000F044F9002839D06B7A002B3DD1D6E982
:10C3800001132C7A68683A46002C18BF1946FCF74E
:10C390006DFA00283FF461AFB369002B3FF45DAF45
:10C3A00098475AE71C4E2C7A6868D6E90113002C8E
:10C3B00018BF194600236B72FCF758FA0028EBD11E
:10C3C0004BE700236B7200287FF447AF6868716801
:10C3D000FCF74CFA00283FF440AFDDE70E4B9B69B9
:10C3E000002B3FF43AAF0420984736E76868FCF723
:10C3F00089FA00283FF431AFCEE7736900222A7230
:10C40000002B3FF42AAF0122ADF806808DF80420FE
:10C4100001A8984721E700BF182C0020342C0020E9
:10C42000482C002070B3F8B5054606460FCD164FD0
:10C430003C460FC4844695E80700144D3D6084E8EF
:10C440000700BCF1000F17D06046FFF7B5FE90B9AA
:10C4500033681868596803C50D4B0E490E4A1846D3
:10C460004FF6FF7440F8041F1C800021FCF7F0F920
:10C47000002818BF0320F8BD2846FFF79FFE0028BC
:10C48000EAD0F8BD0E207047182C0020482C002060
:10C49000342C0020502C0020C1C102002DE9F047AF
:10C4A00003888788103B98B006460A2B17D8DFE828
:10C4B00003F0195E16161616161616650600047A8F
:10C4C00045482409032C394676D9FCF771FC3946D6
:10C4D0004248FCF76DFC39464148FCF769FC18B04E
:10C4E000BDE8F0873F4A9368DB4300935168684694
:10C4F000FCF792FC009B0193019B83B300252C4623
:10C50000214601A8FCF768FC28B118AB03EB4503F2
:10C51000013523F8284C0134142CF1D10D950DF17F
:10C52000340CBCE80F0002AC0FC4BCE80F000FC411
:10C530009CE8070084E807008DB10DF10A08DFF8D8
:10C54000B4A008EB450538F8029F274C2046494621
:10C550000434FCF737FCA245F8D1A845F3D1132FDA
:10C560001AD90420FBF75CFF18B0BDE8F087394604
:10C570001E48FCF727FC18B0BDE8F087037A002BB3
:10C58000ADD1437A14481B07394602D5FCF710FC9D
:10C59000A5E7FCF717FCA2E739461448FCF708FCAE
:10C5A00039461148FCF704FCF37B022B97D139463E
:10C5B0000F48FCF7FDFB92E7FCF704FC032C86D048
:10C5C00039460648FCF7FEFB022C84D03946044865
:10C5D000FCF7F8FB83E700BF882C0020842C0020A8
:10C5E000802C0020702C0020742C0020782C00203F
:10C5F0007C2C0020EC2C0020AADF7047007800F093
:10C6000001007047F0B58B7891B0002B0C4609887B
:10C61000ADF80C1008BF01230546164668460322F4
:10C6200000218DF80E3000F0F7FD637C0022013B05
:10C630008DF80020042B09D8DFE813F0CF00D300D9
:10C64000D700DB00050022238DF80030A37C0022F8
:10C65000013B8DF80120042B09D8DFE813F0CE0050
:10C66000D200D600BA00050022238DF801309DF8D3
:10C670000230E77B227D207C217B67F3C303002A05
:10C6800060F3041314BF0222012261F3000362F37A
:10C69000420309A81C2200218DF8023000F0BCFDE5
:10C6A000637B13F0300F73D1627BA37B8DF8242062
:10C6B0000021142204A88DF8253000F0ADFDA368F8
:10C6C000A288CDF814D003A90491ADF81C201BB1A9
:10C6D000E2880893ADF81820A369002B36D001AF8B
:10C6E00003220021384600F097FDA2691388ADF8B7
:10C6F0002C305388ADF82E3051680D97137B0A917A
:10C70000013B00218DF80410042B2DD8DFE803F045
:10C71000999D8D91290022238DF80530917A9DF8FD
:10C72000063061F3C3038DF80630D17A61F3041348
:10C730008DF80630117A927B002A61F3000314BF52
:10C740000222012262F342038DF80630E36903B14D
:10C750000C93334604AA09A92846FFF74DFF11B0F0
:10C76000F0BD22238DF80430537B0021013B8DF86E
:10C770000510042BD2D801A151F823F03BC80200C8
:10C780001BC8020023C8020013C8020017C702001A
:10C7900002AF03223846002100F03EFDE37C002278
:10C7A000013B8DF80920042B07D8DFE803F05E5A1F
:10C7B0005652030022238DF809309DF80A300E9757
:10C7C000012262F3420311228DF80A308DF808200D
:10C7D0006AE712238DF8013049E711238DF8003004
:10C7E00034E721238DF8003030E731238DF8003015
:10C7F0002CE712238DF8003028E711238DF8013043
:10C8000035E721238DF8013031E731238DF80130F0
:10C810002DE712238DF8053080E721238DF80530B0
:10C820007CE731238DF8053078E731238DF804302B
:10C830009AE712238DF8043096E711238DF805301E
:10C840006CE711238DF804308EE721238DF8043036
:10C850008AE712238DF80930AFE731238DF80930CC
:10C86000ABE721238DF80930A7E711238DF80930B4
:10C87000A3E700BF90DF7047A5DF7047B5DF7047C3
:10C8800070B5002384B0002460F30F0360F31F43EE
:10C890006A46204602A9CDE902340094ADF804406E
:10C8A000FFF7E8FF064610B9304604B070BD124BE2
:10C8B000124DED1AED08FDF72BF92D0445F0010599
:10C8C000034622460E492846FBF744F9BDF80020EE
:10C8D000BDF8023052EA030103D00A492846FBF7AB
:10C8E00039F9BDF80420002ADED028460649FBF7B6
:10C8F0005DF8304604B070BDC0DF020008E0020001
:10C9000048DA020094DA0200D4DA020008B90E20F4
:10C91000704730B403464FF017121B25002041F634
:10C920001B3419611A60C3F806201D7158819C815F
:10C9300030BC70478288002A33D110B50388232B7E
:10C9400082B00C4600F090801ED93A2B6FD0552B48
:10C9500028D0242B46D0A37AA3B1E1880020FFF78A
:10C960008BFF00287BD011280CD0FDF7D1F85A4A54
:10C970005A4B5B499B1ADB081B04024643F001003B
:10C98000FBF714F802B010BD102B3CD0112BE2D1F4
:10C990004FF0171141F61B336281C4F80610A381D2
:10C9A000F0E77047C388C988A272172B38BF1723D6
:10C9B0008B4228BF0B4610462381FFF75FFF0028FC
:10C9C0005FD1E37A002BC6D12369002BC3D040F698
:10C9D000772122890091ADF80420694620469847C6
:10C9E000A37AB9E70B69017A6173002BB3D04DF6D6
:10C9F0007A20ADF8042000908DF804102046694696
:10CA00009847A37AA8E70B790B73C27B012A35D02C
:10CA1000022A31D14988E18022898A423FD3627B50
:10CA20009A4298D21846FFF72BFFA37A94E74389DE
:10CA3000C98822698B4228BF0B46172B38BF1723A2
:10CA400023814AB1E17A39B140F677210091ADF8FE
:10CA500004306946204690470023638192E74FF4F3
:10CA60008073638102B010BD0B7B007A984228BFAF
:10CA70001846FFF705FF6EE7C988CDE70988E18012
:10CA8000CAE7FDF745F8144A144B16499B1ADB0810
:10CA90001B04024643F00100FAF788FF91E70020EB
:10CAA000FFF7EAFE18B90123E372237BB7E71128E9
:10CAB00003D10123A372237BB1E7FDF729F8064ACE
:10CAC000064B07499B1ADB081B04024643F0010092
:10CAD000FAF76CFF237BA2E7C0DF020008E0020048
